{"contracts/CheckIn.sol":{"CheckIn":{"abi":[{"inputs":[{"internalType":"address payable","name":"_batchRegistryAddress","type":"address"}],"stateMutability":"nonpayable","type":"constructor"},{"anonymous":false,"inputs":[{"indexed":true,"internalType":"address","name":"participant","type":"address"}],"name":"CheckedIn","type":"event"},{"inputs":[],"name":"batchRegistry","outputs":[{"internalType":"contract BatchRegistry","name":"","type":"address"}],"stateMutability":"view","type":"function"},{"inputs":[],"name":"batchRegistryAddress","outputs":[{"internalType":"address","name":"","type":"address"}],"stateMutability":"view","type":"function"},{"inputs":[],"name":"checkMeIn","outputs":[],"stateMutability":"nonpayable","type":"function"}],"devdoc":{"kind":"dev","methods":{},"version":1},"evm":{"bytecode":{"linkReferences":{},"object":"608060405234801561001057600080fd5b5060405161018838038061018883398101604081905261002f9161005e565b600080546001600160a01b039092166001600160a01b031992831681179091556001805490921617905561008e565b60006020828403121561007057600080fd5b81516001600160a01b038116811461008757600080fd5b9392505050565b60ec8061009c6000396000f3fe6080604052348015600f57600080fd5b5060043610603c5760003560e01c8063a022da51146041578063a6787d5014606f578063aa40b77b146077575b600080fd5b6000546053906001600160a01b031681565b6040516001600160a01b03909116815260200160405180910390f35b60756089565b005b6001546053906001600160a01b031681565b60405133907f591c0e1d11c1207ddcaf435e99150cb7d9c849a2c6d5eae9547cd518cef6a8cd90600090a256fea264697066735822122073cbab2cbae54d7db6a5f53f8563ea9671be74eaaf56610ec779560e99335b7864736f6c63430008110033","opcodes":"PUSH1 0x80 PUSH1 0x40 MSTORE CALLVALUE DUP1 ISZERO PUSH2 0x10 JUMPI PUSH1 0x0 DUP1 REVERT JUMPDEST POP PUSH1 0x40 MLOAD PUSH2 0x188 CODESIZE SUB DUP1 PUSH2 0x188 DUP4 CODECOPY DUP2 ADD PUSH1 0x40 DUP2 SWAP1 MSTORE PUSH2 0x2F SWAP2 PUSH2 0x5E JUMP JUMPDEST PUSH1 0x0 DUP1 SLOAD PUSH1 0x1 PUSH1 0x1 PUSH1 0xA0 SHL SUB SWAP1 SWAP3 AND PUSH1 0x1 PUSH1 0x1 PUSH1 0xA0 SHL SUB NOT SWAP3 DUP4 AND DUP2 OR SWAP1 SWAP2 SSTORE PUSH1 0x1 DUP1 SLOAD SWAP1 SWAP3 AND OR SWAP1 SSTORE PUSH2 0x8E JUMP JUMPDEST PUSH1 0x0 PUSH1 0x20 DUP3 DUP5 SUB SLT ISZERO PUSH2 0x70 JUMPI PUSH1 0x0 DUP1 REVERT JUMPDEST DUP2 MLOAD PUSH1 0x1 PUSH1 0x1 PUSH1 0xA0 SHL SUB DUP2 AND DUP2 EQ PUSH2 0x87 JUMPI PUSH1 0x0 DUP1 REVERT JUMPDEST SWAP4 SWAP3 POP POP POP JUMP JUMPDEST PUSH1 0xEC DUP1 PUSH2 0x9C PUSH1 0x0 CODECOPY PUSH1 0x0 RETURN INVALID PUSH1 0x80 PUSH1 0x40 MSTORE CALLVALUE DUP1 ISZERO PUSH1 0xF JUMPI PUSH1 0x0 DUP1 REVERT JUMPDEST POP PUSH1 0x4 CALLDATASIZE LT PUSH1 0x3C JUMPI PUSH1 0x0 CALLDATALOAD PUSH1 0xE0 SHR DUP1 PUSH4 0xA022DA51 EQ PUSH1 0x41 JUMPI DUP1 PUSH4 0xA6787D50 EQ PUSH1 0x6F JUMPI DUP1 PUSH4 0xAA40B77B EQ PUSH1 0x77 JUMPI JUMPDEST PUSH1 0x0 DUP1 REVERT JUMPDEST PUSH1 0x0 SLOAD PUSH1 0x53 SWAP1 PUSH1 0x1 PUSH1 0x1 PUSH1 0xA0 SHL SUB AND DUP2 JUMP JUMPDEST PUSH1 0x40 MLOAD PUSH1 0x1 PUSH1 0x1 PUSH1 0xA0 SHL SUB SWAP1 SWAP2 AND DUP2 MSTORE PUSH1 0x20 ADD PUSH1 0x40 MLOAD DUP1 SWAP2 SUB SWAP1 RETURN JUMPDEST PUSH1 0x75 PUSH1 0x89 JUMP JUMPDEST STOP JUMPDEST PUSH1 0x1 SLOAD PUSH1 0x53 SWAP1 PUSH1 0x1 PUSH1 0x1 PUSH1 0xA0 SHL SUB AND DUP2 JUMP JUMPDEST PUSH1 0x40 MLOAD CALLER SWAP1 PUSH32 0x591C0E1D11C1207DDCAF435E99150CB7D9C849A2C6D5EAE9547CD518CEF6A8CD SWAP1 PUSH1 0x0 SWAP1 LOG2 JUMP INVALID LOG2 PUSH5 0x6970667358 0x22 SLT KECCAK256 PUSH20 0xCBAB2CBAE54D7DB6A5F53F8563EA9671BE74EAAF JUMP PUSH2 0xEC7 PUSH26 0x560E99335B7864736F6C63430008110033000000000000000000 "},"gasEstimates":{"creation":{"codeDepositCost":"47200","executionCost":"infinite","totalCost":"infinite"},"external":{"batchRegistry()":"2347","batchRegistryAddress()":"2303","checkMeIn()":"1292"}},"methodIdentifiers":{"batchRegistry()":"aa40b77b","batchRegistryAddress()":"a022da51","checkMeIn()":"a6787d50"}},"storageLayout":{"storage":[{"astId":346,"contract":"contracts/CheckIn.sol:CheckIn","label":"batchRegistryAddress","offset":0,"slot":"0","type":"t_address"},{"astId":349,"contract":"contracts/CheckIn.sol:CheckIn","label":"batchRegistry","offset":0,"slot":"1","type":"t_contract(BatchRegistry)578"}],"types":{"t_address":{"encoding":"inplace","label":"address","numberOfBytes":"20"},"t_contract(BatchRegistry)578":{"encoding":"inplace","label":"contract BatchRegistry","numberOfBytes":"20"}}},"userdoc":{"kind":"user","methods":{},"version":1}}}}