{
  "_format": "hh-sol-artifact-1",
  "contractName": "Beneficiary",
  "sourceName": "contracts/Beneficiary.sol",
  "abi": [
    {
      "inputs": [
        {
          "internalType": "address",
          "name": "_arbiter",
          "type": "address"
        }
      ],
      "stateMutability": "payable",
      "type": "constructor"
    },
    {
      "anonymous": false,
      "inputs": [
        {
          "indexed": false,
          "internalType": "uint256",
          "name": "amount",
          "type": "uint256"
        }
      ],
      "name": "Approved",
      "type": "event"
    },
    {
      "anonymous": false,
      "inputs": [
        {
          "indexed": true,
          "internalType": "address",
          "name": "beneficiary",
          "type": "address"
        },
        {
          "indexed": false,
          "internalType": "uint256",
          "name": "amount",
          "type": "uint256"
        }
      ],
      "name": "Deposit",
      "type": "event"
    },
    {
      "anonymous": false,
      "inputs": [
        {
          "indexed": false,
          "internalType": "bool",
          "name": "status",
          "type": "bool"
        }
      ],
      "name": "ServicesToggled",
      "type": "event"
    },
    {
      "inputs": [],
      "name": "arbiter",
      "outputs": [
        {
          "internalType": "address",
          "name": "",
          "type": "address"
        }
      ],
      "stateMutability": "view",
      "type": "function"
    },
    {
      "inputs": [],
      "name": "depositor",
      "outputs": [
        {
          "internalType": "address",
          "name": "",
          "type": "address"
        }
      ],
      "stateMutability": "view",
      "type": "function"
    },
    {
      "inputs": [],
      "name": "servicesDone",
      "outputs": [
        {
          "internalType": "bool",
          "name": "",
          "type": "bool"
        }
      ],
      "stateMutability": "view",
      "type": "function"
    },
    {
      "inputs": [],
      "name": "toggleServices",
      "outputs": [],
      "stateMutability": "nonpayable",
      "type": "function"
    },
    {
      "inputs": [],
      "name": "transferToBeneficiary",
      "outputs": [],
      "stateMutability": "nonpayable",
      "type": "function"
    },
    {
      "stateMutability": "payable",
      "type": "receive"
    }
  ],
  "bytecode": "0x60806040526040516104183803806104188339810160408190526100229161008a565b600180546001600160a01b03199081166001600160a01b0384161790915560008054339216821790553460028190556040519081527fe1fffcc4923d04b559f4d29a8bfc6cda04eb5b0d3c460751c2402c5c5cc9109c9060200160405180910390a2506100ba565b60006020828403121561009c57600080fd5b81516001600160a01b03811681146100b357600080fd5b9392505050565b61034f806100c96000396000f3fe60806040526004361061004e5760003560e01c80637f0699421461005a57806384a28121146100715780638e7457e3146100a0578063c7c4ff46146100b5578063fe25e00a146100ed57600080fd5b3661005557005b600080fd5b34801561006657600080fd5b5061006f61010d565b005b34801561007d57600080fd5b5060035461008b9060ff1681565b60405190151581526020015b60405180910390f35b3480156100ac57600080fd5b5061006f610282565b3480156100c157600080fd5b506000546100d5906001600160a01b031681565b6040516001600160a01b039091168152602001610097565b3480156100f957600080fd5b506001546100d5906001600160a01b031681565b6001546001600160a01b0316331461015c5760405162461bcd60e51b815260206004820152600d60248201526c139bdd105d5d1a1bdc9a5e9959609a1b60448201526064015b60405180910390fd5b60035460ff166101a05760405162461bcd60e51b815260206004820152600f60248201526e53657276696365734e6f74446f6e6560881b6044820152606401610153565b600080546002546040516001600160a01b03909216918381818185875af1925050503d80600081146101ee576040519150601f19603f3d011682016040523d82523d6000602084013e6101f3565b606091505b50509050806102445760405162461bcd60e51b815260206004820152601e60248201527f5472616e7366657220746f2062656e6566696369617279206661696c656400006044820152606401610153565b7f3ad93af63cb7967b23e4fb500b7d7d28b07516325dcf341f88bebf959d82c1cb60025460405161027791815260200190565b60405180910390a150565b6001546001600160a01b031633146102cc5760405162461bcd60e51b815260206004820152600d60248201526c139bdd105d5d1a1bdc9a5e9959609a1b6044820152606401610153565b6003805460ff8082161560ff1990921682179092556040519116151581527fdcd0f6af634e5c2e184e94cbf75671a57df7fcaa0f067e8dfe5459cd822d20439060200160405180910390a156fea264697066735822122041af027a5dca8e3df3af4d5ef322f4513dbc5149dc1245476257d20e99fbf5b964736f6c63430008110033",
  "linkReferences": {},
  "deployedLinkReferences": {}
}